{
    "_format": "hh-sol-artifact-1",
    "contractName": "CampaignManager",
    "sourceName": "contracts/payCreators.sol",
    "abi": [
        {
            "inputs": [],
            "stateMutability": "nonpayable",
            "type": "constructor"
        },
        {
            "anonymous": false,
            "inputs": [
                {
                    "indexed": true,
                    "internalType": "uint256",
                    "name": "campaignId",
                    "type": "uint256"
                }
            ],
            "name": "CampaignCancelled",
            "type": "event"
        },
        {
            "anonymous": false,
            "inputs": [
                {
                    "indexed": true,
                    "internalType": "uint256",
                    "name": "campaignId",
                    "type": "uint256"
                },
                {
                    "indexed": true,
                    "internalType": "address",
                    "name": "creator",
                    "type": "address"
                },
                {
                    "indexed": false,
                    "internalType": "uint256",
                    "name": "reward",
                    "type": "uint256"
                }
            ],
            "name": "CampaignCreated",
            "type": "event"
        },
        {
            "anonymous": false,
            "inputs": [
                {
                    "indexed": true,
                    "internalType": "uint256",
                    "name": "campaignId",
                    "type": "uint256"
                }
            ],
            "name": "CampaignEnded",
            "type": "event"
        },
        {
            "anonymous": false,
            "inputs": [
                {
                    "indexed": true,
                    "internalType": "address",
                    "name": "recipient",
                    "type": "address"
                },
                {
                    "indexed": false,
                    "internalType": "uint256",
                    "name": "amount",
                    "type": "uint256"
                }
            ],
            "name": "Payment",
            "type": "event"
        },
        {
            "anonymous": false,
            "inputs": [
                {
                    "indexed": true,
                    "internalType": "uint256",
                    "name": "campaignId",
                    "type": "uint256"
                },
                {
                    "indexed": true,
                    "internalType": "address",
                    "name": "recipient",
                    "type": "address"
                },
                {
                    "indexed": false,
                    "internalType": "uint256",
                    "name": "amount",
                    "type": "uint256"
                }
            ],
            "name": "Payout",
            "type": "event"
        },
        {
            "inputs": [
                {
                    "internalType": "uint256",
                    "name": "",
                    "type": "uint256"
                }
            ],
            "name": "campaigns",
            "outputs": [
                {
                    "internalType": "address",
                    "name": "creator",
                    "type": "address"
                },
                {
                    "internalType": "uint256",
                    "name": "reward",
                    "type": "uint256"
                },
                {
                    "internalType": "bool",
                    "name": "active",
                    "type": "bool"
                }
            ],
            "stateMutability": "view",
            "type": "function"
        },
        {
            "inputs": [
                {
                    "internalType": "uint256",
                    "name": "campaignId",
                    "type": "uint256"
                }
            ],
            "name": "cancelCampaign",
            "outputs": [],
            "stateMutability": "nonpayable",
            "type": "function"
        },
        {
            "inputs": [],
            "name": "createCampaign",
            "outputs": [],
            "stateMutability": "payable",
            "type": "function"
        },
        {
            "inputs": [],
            "name": "getCampaigns",
            "outputs": [
                {
                    "components": [
                        {
                            "internalType": "address",
                            "name": "creator",
                            "type": "address"
                        },
                        {
                            "internalType": "uint256",
                            "name": "reward",
                            "type": "uint256"
                        },
                        {
                            "internalType": "bool",
                            "name": "active",
                            "type": "bool"
                        }
                    ],
                    "internalType": "struct CampaignManager.Campaign[]",
                    "name": "",
                    "type": "tuple[]"
                }
            ],
            "stateMutability": "view",
            "type": "function"
        },
        {
            "inputs": [
                {
                    "internalType": "address",
                    "name": "user",
                    "type": "address"
                }
            ],
            "name": "getUserCampaigns",
            "outputs": [
                {
                    "components": [
                        {
                            "internalType": "uint256",
                            "name": "campaignId",
                            "type": "uint256"
                        },
                        {
                            "internalType": "address",
                            "name": "creator",
                            "type": "address"
                        },
                        {
                            "internalType": "uint256",
                            "name": "reward",
                            "type": "uint256"
                        },
                        {
                            "internalType": "bool",
                            "name": "active",
                            "type": "bool"
                        }
                    ],
                    "internalType": "struct CampaignManager.CampaignDetail[]",
                    "name": "",
                    "type": "tuple[]"
                }
            ],
            "stateMutability": "view",
            "type": "function"
        },
        {
            "inputs": [],
            "name": "owner",
            "outputs": [
                {
                    "internalType": "address",
                    "name": "",
                    "type": "address"
                }
            ],
            "stateMutability": "view",
            "type": "function"
        },
        {
            "inputs": [
                {
                    "internalType": "uint256",
                    "name": "campaignId",
                    "type": "uint256"
                },
                {
                    "internalType": "address[]",
                    "name": "recipients",
                    "type": "address[]"
                },
                {
                    "internalType": "uint256",
                    "name": "ownerFeePercentage",
                    "type": "uint256"
                }
            ],
            "name": "payout",
            "outputs": [],
            "stateMutability": "nonpayable",
            "type": "function"
        },
        {
            "inputs": [
                {
                    "internalType": "address",
                    "name": "",
                    "type": "address"
                },
                {
                    "internalType": "uint256",
                    "name": "",
                    "type": "uint256"
                }
            ],
            "name": "userCampaigns",
            "outputs": [
                {
                    "internalType": "uint256",
                    "name": "",
                    "type": "uint256"
                }
            ],
            "stateMutability": "view",
            "type": "function"
        }
    ],
    "bytecode": "0x608060405234801561001057600080fd5b50336000806101000a81548173ffffffffffffffffffffffffffffffffffffffff021916908373ffffffffffffffffffffffffffffffffffffffff160217905550611816806100606000396000f3fe60806040526004361061007b5760003560e01c80636201fe691161004e5780636201fe691461014e5780638da5cb5b14610158578063a1e5084c14610183578063a6b03633146101c05761007b565b8063141961bc1461008057806319ac74bd146100bf57806339221789146100fc57806345598b4a14610125575b600080fd5b34801561008c57600080fd5b506100a760048036038101906100a29190610e07565b6101eb565b6040516100b693929190610e9f565b60405180910390f35b3480156100cb57600080fd5b506100e660048036038101906100e19190610f02565b610252565b6040516100f39190610f42565b60405180910390f35b34801561010857600080fd5b50610123600480360381019061011e9190610fc2565b610283565b005b34801561013157600080fd5b5061014c60048036038101906101479190610e07565b6106d0565b005b6101566108b9565b005b34801561016457600080fd5b5061016d610a9b565b60405161017a9190611036565b60405180910390f35b34801561018f57600080fd5b506101aa60048036038101906101a59190611051565b610abf565b6040516101b791906111af565b60405180910390f35b3480156101cc57600080fd5b506101d5610cad565b6040516101e291906112c2565b60405180910390f35b600181815481106101fb57600080fd5b90600052602060002090600302016000915090508060000160009054906101000a900473ffffffffffffffffffffffffffffffffffffffff16908060010154908060020160009054906101000a900460ff16905083565b6002602052816000526040600020818154811061026e57600080fd5b90600052602060002001600091509150505481565b60008054906101000a900473ffffffffffffffffffffffffffffffffffffffff1673ffffffffffffffffffffffffffffffffffffffff163373ffffffffffffffffffffffffffffffffffffffff1614610311576040517f08c379a000000000000000000000000000000000000000000000000000000000815260040161030890611341565b60405180910390fd5b60006001858154811061032757610326611361565b5b906000526020600020906003020190508060020160009054906101000a900460ff16610388576040517f08c379a000000000000000000000000000000000000000000000000000000000815260040161037f906113dc565b60405180910390fd5b600084849050116103ce576040517f08c379a00000000000000000000000000000000000000000000000000000000081526004016103c590611448565b60405180910390fd5b600060648383600101546103e29190611497565b6103ec9190611508565b905060008183600101546104009190611539565b90506000868690509050600081836104189190611508565b90508347101561045d576040517f08c379a0000000000000000000000000000000000000000000000000000000008152600401610454906115df565b60405180910390fd5b60008054906101000a900473ffffffffffffffffffffffffffffffffffffffff1673ffffffffffffffffffffffffffffffffffffffff166108fc859081150290604051600060405180830381858888f193505050501580156104c3573d6000803e3d6000fd5b5060008054906101000a900473ffffffffffffffffffffffffffffffffffffffff1673ffffffffffffffffffffffffffffffffffffffff167fd4f43975feb89f48dd30cabbb32011045be187d1e11c8ea9faa43efc352825198560405161052a9190610f42565b60405180910390a260005b8888905081101561067a5781471015610583576040517f08c379a000000000000000000000000000000000000000000000000000000000815260040161057a90611671565b60405180910390fd5b88888281811061059657610595611361565b5b90506020020160208101906105ab9190611051565b73ffffffffffffffffffffffffffffffffffffffff166108fc839081150290604051600060405180830381858888f193505050501580156105f0573d6000803e3d6000fd5b5088888281811061060457610603611361565b5b90506020020160208101906106199190611051565b73ffffffffffffffffffffffffffffffffffffffff168a7f5f7341a552ae2d452b071917104c05fbac3663936a69be768a05c40605056e7d8460405161065f9190610f42565b60405180910390a3808061067290611691565b915050610535565b5060008560020160006101000a81548160ff021916908315150217905550887f4d09689e5ab2d74dc1f9a1e821d4dcb2bb48908bd8a74872127b995b7d12015460405160405180910390a2505050505050505050565b803373ffffffffffffffffffffffffffffffffffffffff16600182815481106106fc576106fb611361565b5b906000526020600020906003020160000160009054906101000a900473ffffffffffffffffffffffffffffffffffffffff1673ffffffffffffffffffffffffffffffffffffffff1614610784576040517f08c379a000000000000000000000000000000000000000000000000000000000815260040161077b90611725565b60405180910390fd5b60006001838154811061079a57610799611361565b5b906000526020600020906003020190508060020160009054906101000a900460ff166107fb576040517f08c379a00000000000000000000000000000000000000000000000000000000081526004016107f2906113dc565b60405180910390fd5b60008160020160006101000a81548160ff0219169083151502179055508060000160009054906101000a900473ffffffffffffffffffffffffffffffffffffffff1673ffffffffffffffffffffffffffffffffffffffff166108fc82600101549081150290604051600060405180830381858888f19350505050158015610886573d6000803e3d6000fd5b50827f403b6718db13878ac16c27decb08f09d3a10f116c7c25af575ff5bfbc11ae9e660405160405180910390a2505050565b600034116108fc576040517f08c379a00000000000000000000000000000000000000000000000000000000081526004016108f390611791565b60405180910390fd5b600160405180606001604052803373ffffffffffffffffffffffffffffffffffffffff16815260200134815260200160011515815250908060018154018082558091505060019003906000526020600020906003020160009091909190915060008201518160000160006101000a81548173ffffffffffffffffffffffffffffffffffffffff021916908373ffffffffffffffffffffffffffffffffffffffff1602179055506020820151816001015560408201518160020160006101000a81548160ff02191690831515021790555050506000600180805490506109e19190611539565b9050600260003373ffffffffffffffffffffffffffffffffffffffff1673ffffffffffffffffffffffffffffffffffffffff1681526020019081526020016000208190806001815401808255809150506001900390600052602060002001600090919091909150553373ffffffffffffffffffffffffffffffffffffffff16817f63e3678c8493a16f8ba43ae9e547231762ca04526dac2c388bd2c26d8940185134604051610a909190610f42565b60405180910390a350565b60008054906101000a900473ffffffffffffffffffffffffffffffffffffffff1681565b60606000600260008473ffffffffffffffffffffffffffffffffffffffff1673ffffffffffffffffffffffffffffffffffffffff168152602001908152602001600020805480602002602001604051908101604052809291908181526020018280548015610b4c57602002820191906000526020600020905b815481526020019060010190808311610b38575b505050505090506000815167ffffffffffffffff811115610b7057610b6f6117b1565b5b604051908082528060200260200182016040528015610ba957816020015b610b96610d87565b815260200190600190039081610b8e5790505b50905060005b8251811015610ca2576000838281518110610bcd57610bcc611361565b5b60200260200101519050600060018281548110610bed57610bec611361565b5b9060005260206000209060030201905060405180608001604052808381526020018260000160009054906101000a900473ffffffffffffffffffffffffffffffffffffffff1673ffffffffffffffffffffffffffffffffffffffff168152602001826001015481526020018260020160009054906101000a900460ff161515815250848481518110610c8257610c81611361565b5b602002602001018190525050508080610c9a90611691565b915050610baf565b508092505050919050565b60606001805480602002602001604051908101604052809291908181526020016000905b82821015610d7e57838290600052602060002090600302016040518060600160405290816000820160009054906101000a900473ffffffffffffffffffffffffffffffffffffffff1673ffffffffffffffffffffffffffffffffffffffff1673ffffffffffffffffffffffffffffffffffffffff168152602001600182015481526020016002820160009054906101000a900460ff16151515158152505081526020019060010190610cd1565b50505050905090565b604051806080016040528060008152602001600073ffffffffffffffffffffffffffffffffffffffff168152602001600081526020016000151581525090565b600080fd5b600080fd5b6000819050919050565b610de481610dd1565b8114610def57600080fd5b50565b600081359050610e0181610ddb565b92915050565b600060208284031215610e1d57610e1c610dc7565b5b6000610e2b84828501610df2565b91505092915050565b600073ffffffffffffffffffffffffffffffffffffffff82169050919050565b6000610e5f82610e34565b9050919050565b610e6f81610e54565b82525050565b610e7e81610dd1565b82525050565b60008115159050919050565b610e9981610e84565b82525050565b6000606082019050610eb46000830186610e66565b610ec16020830185610e75565b610ece6040830184610e90565b949350505050565b610edf81610e54565b8114610eea57600080fd5b50565b600081359050610efc81610ed6565b92915050565b60008060408385031215610f1957610f18610dc7565b5b6000610f2785828601610eed565b9250506020610f3885828601610df2565b9150509250929050565b6000602082019050610f576000830184610e75565b92915050565b600080fd5b600080fd5b600080fd5b60008083601f840112610f8257610f81610f5d565b5b8235905067ffffffffffffffff811115610f9f57610f9e610f62565b5b602083019150836020820283011115610fbb57610fba610f67565b5b9250929050565b60008060008060608587031215610fdc57610fdb610dc7565b5b6000610fea87828801610df2565b945050602085013567ffffffffffffffff81111561100b5761100a610dcc565b5b61101787828801610f6c565b9350935050604061102a87828801610df2565b91505092959194509250565b600060208201905061104b6000830184610e66565b92915050565b60006020828403121561106757611066610dc7565b5b600061107584828501610eed565b91505092915050565b600081519050919050565b600082825260208201905092915050565b6000819050602082019050919050565b6110b381610dd1565b82525050565b6110c281610e54565b82525050565b6110d181610e84565b82525050565b6080820160008201516110ed60008501826110aa565b50602082015161110060208501826110b9565b50604082015161111360408501826110aa565b50606082015161112660608501826110c8565b50505050565b600061113883836110d7565b60808301905092915050565b6000602082019050919050565b600061115c8261107e565b6111668185611089565b93506111718361109a565b8060005b838110156111a2578151611189888261112c565b975061119483611144565b925050600181019050611175565b5085935050505092915050565b600060208201905081810360008301526111c98184611151565b905092915050565b600081519050919050565b600082825260208201905092915050565b6000819050602082019050919050565b60608201600082015161121360008501826110b9565b50602082015161122660208501826110aa565b50604082015161123960408501826110c8565b50505050565b600061124b83836111fd565b60608301905092915050565b6000602082019050919050565b600061126f826111d1565b61127981856111dc565b9350611284836111ed565b8060005b838110156112b557815161129c888261123f565b97506112a783611257565b925050600181019050611288565b5085935050505092915050565b600060208201905081810360008301526112dc8184611264565b905092915050565b600082825260208201905092915050565b7f4e6f7420746865206f776e657200000000000000000000000000000000000000600082015250565b600061132b600d836112e4565b9150611336826112f5565b602082019050919050565b6000602082019050818103600083015261135a8161131e565b9050919050565b7f4e487b7100000000000000000000000000000000000000000000000000000000600052603260045260246000fd5b7f43616d706169676e206973206e6f742061637469766500000000000000000000600082015250565b60006113c66016836112e4565b91506113d182611390565b602082019050919050565b600060208201905081810360008301526113f5816113b9565b9050919050565b7f526563697069656e747320617272617920697320656d70747900000000000000600082015250565b60006114326019836112e4565b915061143d826113fc565b602082019050919050565b6000602082019050818103600083015261146181611425565b9050919050565b7f4e487b7100000000000000000000000000000000000000000000000000000000600052601160045260246000fd5b60006114a282610dd1565b91506114ad83610dd1565b92508282026114bb81610dd1565b915082820484148315176114d2576114d1611468565b5b5092915050565b7f4e487b7100000000000000000000000000000000000000000000000000000000600052601260045260246000fd5b600061151382610dd1565b915061151e83610dd1565b92508261152e5761152d6114d9565b5b828204905092915050565b600061154482610dd1565b915061154f83610dd1565b925082820390508181111561156757611566611468565b5b92915050565b7f496e73756666696369656e742062616c616e636520666f72206f776e6572206660008201527f6565000000000000000000000000000000000000000000000000000000000000602082015250565b60006115c96022836112e4565b91506115d48261156d565b604082019050919050565b600060208201905081810360008301526115f8816115bc565b9050919050565b7f496e73756666696369656e742062616c616e636520666f72207265636970696560008201527f6e74207061796f75740000000000000000000000000000000000000000000000602082015250565b600061165b6029836112e4565b9150611666826115ff565b604082019050919050565b6000602082019050818103600083015261168a8161164e565b9050919050565b600061169c82610dd1565b91507fffffffffffffffffffffffffffffffffffffffffffffffffffffffffffffffff82036116ce576116cd611468565b5b600182019050919050565b7f4e6f74207468652063616d706169676e2063726561746f720000000000000000600082015250565b600061170f6018836112e4565b915061171a826116d9565b602082019050919050565b6000602082019050818103600083015261173e81611702565b9050919050565b7f526577617264206d7573742062652067726561746572207468616e207a65726f600082015250565b600061177b6020836112e4565b915061178682611745565b602082019050919050565b600060208201905081810360008301526117aa8161176e565b9050919050565b7f4e487b7100000000000000000000000000000000000000000000000000000000600052604160045260246000fdfea26469706673582212201af034972d48f96abd810bff05b260399b331e4ae3fb3eedce77ecda08ddce2564736f6c63430008130033",
    "linkReferences": {},
    "deployedLinkReferences": {}
}